:1000000010C02AC029C028C027C0BCC025C024C039
:1000100023C022C021C020C01FC01EC01DC01CC0E4
:100020001BC011241FBECFE5D1E0DEBFCDBF10E065
:10003000A0E6B0E0E6E3F3E002C005900D92A03642
:10004000B107D9F710E0A0E6B0E001C01D92A037DB
:10005000B107E1F75CD16DC1D3CF8FED8BBB8FEFD3
:100060008ABB1FBC1EBC8EB581608EBD8EB5806400
:100070008EBD8EB580688EBD659A10926B00109211
:100080006A0010926E0010926D001092670010923C
:1000900066007894089528E061E070E045E050E063
:1000A0008BB3877E8BBBDD9ACB010197F1F78BB3C6
:1000B00088618BBBDD98CA010197F1F7215081F768
:1000C00010926C000895E7DF8CEB92E00197F1F756
:1000D000E2DF08958AEF90E00197F1F7DCDF089501
:1000E00080E991E00197F1F7D6DF089584EC99E07B
:1000F0000197F1F70895E7DF80E80AC080916F006B
:10010000982311F0EDDF01C0E5DF80916200869554
:100110008093620090916200992381F784EC99E0CA
:100120000197F1F708953091630020E864EF71E0E2
:100130004AEF50E00CC0822F832311F0CA0101C0A6
:10014000CB010197F1F72695CA010197F1F7222318
:1001500091F78FEF80936000D89AD99ADA9A31306C
:1001600011F4D89807C0323011F4D99803C0333055
:1001700009F4DA9888EA91E60197F1F7D89AD99AC2
:10018000DA9A08951F920F920FB60F9211242F93AF
:100190003F934F935F936F937F938F939F93AF930F
:1001A000BF93EF93FF9384B595B590936B008093C5
:1001B0006A0020916D0030916E00AC01421B530B20
:1001C0009A01509367004093660090936E0080936D
:1001D0006D00CA01815699408F5A944030F480E8EE
:1001E00080936000109263001BC0C901815C934042
:1001F0008F5D914030F4809160008695809360001F
:100200000FC0215A35402F5C324050F4909160006D
:1002100080916300892B8093630096959093600092
:1002200080916000882321F48FEF809360007BDF52
:10023000FF91EF91BF91AF919F918F917F916F91BE
:100240005F914F913F912F910F900FBE0F901F9094
:100250001895F89483E080936F004DDF78940895AB
:100260003091640020916500909169008FEF8317B1
:1002700010F4D99801C0D99A821710F4D89801C007
:10028000D89A891710F4DA9801C0DA9A815079F770
:1002900010926800089580916F00815080936F00E4
:1002A0002ADF08958FEF09C08093650080958093C1
:1002B0006400D6DF8091610081508093610080915D
:1002C0006100882389F78FEF09C0809364008095CF
:1002D00080936900C5DF8091610081508093610047
:1002E00080916100882389F78FEF0AC080936900AD
:1002F000809580936500B4DFB3DF80916100815009
:100300008093610080916100882381F70895CF93E5
:10031000DF93A3DEC7DFD89AD99ADA9AC9E1D0E091
:1003200098DF88E893E1FE013197F1F70197D9F75B
:06033000F7CFF894FFCFA7
:00000001FF
