:1000000010C02AC029C028C027C010C125C024C0E4
:1000100023C022C021C020C01FC01EC01DC01CC0E4
:100020001BC011241FBECFE5D1E0DEBFCDBF10E065
:10003000A0E6B0E0E6EDF3E002C005900D92A03638
:10004000B107D9F710E0A0E6B0E001C01D92A037DB
:10005000B107E1F759D1BDC1D3CF8FEF8BBB8ABBBD
:100060001FBC1EBC8EB581608EBD8EB580648EBDFA
:100070008EB580688EBD659A10926B0010926A00F2
:1000800010926E0010926D00109267001092660040
:10009000DD987894089528E043E050E0DB98CA01A9
:1000A0000197F1F7DB9ACA010197F1F72150B1F7F7
:1000B0008CEB92E00197F1F728E043E050E0DB9809
:1000C000CA010197F1F7DB9ACA010197F1F72150B4
:1000D000B1F710926C00089528E043E050E0DB98FF
:1000E000CA010197F1F7DB9ACA010197F1F7215094
:1000F000B1F710926C0008958AEF90E00197F1F744
:1001000028E043E050E0DB98CA010197F1F7DB9A61
:10011000CA010197F1F72150B1F710926C000895D0
:1001200080E991E00197F1F728E043E050E0DB98A7
:10013000CA010197F1F7DB9ACA010197F1F7215043
:10014000B1F710926C00089584EC99E00197F1F7F3
:100150000895A1DFA0916F0080916C0030E8EAEF74
:10016000F0E043E050E060E971E024C0832F8A238F
:1001700081F0CB010197F1F728E008C0DB98CA01B4
:100180000197F1F7DB9ACA010197F1F72150B0F717
:100190000FC0CF010197F1F728E008C0DB98CA0132
:1001A0000197F1F7DB9ACA010197F1F72150B0F7F7
:1001B000369580E03323D1F680936C001092620074
:1001C00084EC99E00197F1F708953091630020E8FD
:1001D00064EF71E04AEF50E00EC0DD9A822F832376
:1001E00011F0CA0101C0CB010197F1F72695DD9806
:1001F000CA010197F1F7222381F78FEF8093600006
:10020000D89AD99ADA9A313011F4D89807C0323096
:1002100011F4D99803C0333009F4DA9888EA91E6EA
:100220000197F1F7D89AD99ADA9A08951F920F9206
:100230000FB60F9211242F933F934F935F936F93B9
:100240007F938F939F93AF93BF93EF93FF9384B567
:1002500095B590936B0080936A0020916D0030916A
:100260006E00AC01421B530B9A0150936700409300
:10027000660090936E0080936D00CA01815699408C
:100280008F5A944030F480E88093600010926300AD
:100290001BC0C901815C93408F5D914030F4809117
:1002A00060008695809360000FC0215A35402F5C16
:1002B000324050F49091600080916300892B8093CC
:1002C000630096959093600080916000882321F4EC
:1002D0008FEF8093600079DFFF91EF91BF91AF9135
:1002E0009F918F917F916F915F914F913F912F914E
:1002F0000F900FBE0F901F901895F89483E0809395
:100300006F0027DF78940895CF93DF93A6DEC9E1CD
:10031000D0E0F3DF88E893E1FE013197F1F7019730
:10032000D9F7F7CF30916400209165009091690072
:100330008FEF831710F4D99801C0D99A821710F45F
:10034000D89801C0D89A891710F4DA9801C0DA9ABF
:10035000815079F710926800089580916F00815064
:1003600080936F00F6DE08958FEF09C080936500DB
:10037000809580936400D6DF8091610081508093E6
:10038000610080916100882389F78FEF09C0809315
:100390006400809580936900C5DF80916100815081
:1003A0008093610080916100882389F78FEF0AC0F4
:1003B00080936900809580936500B4DFB3DF8091FE
:1003C000610081508093610080916100882381F7F2
:0603D0000895F894FFCF30
:00000001FF
