:1000000010C02AC029C028C027C05CC125C024C098
:1000100023C022C021C020C01FC01EC01DC01CC0E4
:100020001BC011241FBECFE5D1E0DEBFCDBF10E065
:10003000A0E6B0E0E6EDF5E002C005900D92A43632
:10004000B107D9F710E0A4E6B0E001C01D92AF37C8
:10005000B107E1F79AD1BDC2D3CF80916A0088235E
:1000600041F0815080936A008091670081508093B5
:10007000670080917E00882341F0815080937E004C
:100080008091670081508093670080916B00882386
:1000900041F0815080936B00809167008150809384
:1000A000670080916700882359F481E080936B009A
:1000B00080916A0090917E00890F8F5F8093670026
:1000C00008958FED8BBB8FEF8ABBD89AD99ADA9AB5
:1000D0001FBC1EBC8EB581608EBD8EB580648EBD8A
:1000E0008EB580688EBD659A109272001092710074
:1000F00010927900109278001092690010926800B6
:1001000010926A0010927E0010926B0010926700AD
:1001100010926C00A2DF78940895CF93DF93209122
:100120006700222309F447C04091700030E0220F9D
:10013000331F80916A0090E0642F70E084D1B90190
:1001400094D1EB0170936F0060936E0080917E00FC
:1001500090E0642F70E077D1B90187D1FB017093F3
:1001600074006093730080916B0090E0642F70E0E6
:100170006AD1B9017AD19B0170937B0060937A00B8
:1001800040E015C0842F90E08C179D0710F4D8989C
:1001900001C0D89A8E179F0710F4D99801C0D99A38
:1001A0008217930710F4DA9801C0DA9A4F5F443B44
:1001B00048F340936D00DF91CF91089528E061E00E
:1001C00070E045E050E08BB3877E8BBBDD9ACB01BE
:1001D0000197F1F78BB388618BBBDD98CA0101975A
:1001E000F1F7215081F7109277000895F894E6DF37
:1001F0008BEB90E00197F1F7E1DF8EE390E0019760
:10020000F1F77894089510926C000ED19C018FEF55
:100210009FE7821B930B909365008093640003C05B
:1002200000002150304021153105D1F710927600A1
:1002300010927500DBDF809164009091650002C030
:10024000000001970097E1F710926500109264009A
:100250001092700006C061DF809170008F5F809304
:10026000700080917000843BB0F384EB04C055DFD4
:10027000809170008150809370008091700088237D
:10028000B1F7EBDE81E080936C0080E197E229E139
:1002900030E0F9013197F1F70197D9F70895002E71
:1002A00001E00EBF00E00DBF002D8AE004C0ABDF0F
:1002B00080917C00815080937C0080917C00882319
:1002C000B1F7FFCF1F920F920FB60F9211242F9309
:1002D0003F934F935F936F937F938F939F93AF93CE
:1002E000BF93EF93FF9384B595B59093720080937D
:1002F00071002091780030917900AC01421B530BC2
:100300009A0150936900409368009093790080931C
:100310007800CA01895691408453914030F480910D
:100320006A008F5F80936A0016C0C90188519240AD
:100330008A5C914030F480917E008F5F80937E00D4
:100340000AC0275C32402056324070F480916B0026
:100350008F5F80936B00809167008F5F8093670051
:1003600080916C0081119BDFFF91EF91BF91AF9164
:100370009F918F917F916F915F914F913F912F91BD
:100380000F900FBE0F901F9018959BDE88DF80E0C6
:1003900090E00895A0E0B0E0EFECF1E0C9C0EC011E
:1003A000A880B980CA80DB80A114B104C104D10443
:1003B00041F484E2A82E89EDB82E8BE5C82E87E0A3
:1003C000D82EC601B5012DE133EF41E050E08DD0CC
:1003D00027EA31E440E050E06FD07B018C01C60198
:1003E000B5012DE133EF41E050E07FD0CA01B90102
:1003F0002CEE34EF4FEF5FEF5FD06E0D7F1D801F4F
:10040000911F97FF04C061507040804090486883FE
:1004100079838A839B839B013F77C901CDB7DEB780
:10042000EAE0A2C0B7DF089580E690E0B3DF089568
:10043000A0E0B0E08093600090936100A093620020
:10044000B093630008955527002480FF02C0060E74
:10045000571F660F771F6115710521F096958795D7
:10046000009799F7952F802D089597FB092E072661
:100470000AD077FD04D00CD006D000201AF4709575
:1004800061957F4F0895F6F7909581959F4F089558
:10049000AA1BBB1B51E107C0AA1FBB1FA617B707AA
:1004A00010F0A61BB70B881F991F5A95A9F78095C6
:1004B0009095BC01CD010895FF27EE27BB27AA2701
:1004C00060FF04C0A20FB31FE41FF51F220F331FEC
:1004D000441F551F969587957795679589F70097DF
:1004E000760771F7CF01BD01089597FB092E052608
:1004F0000ED057FD04D04BD00AD0001C38F45095D4
:100500004095309521953F4F4F4F5F4F0895F6F737
:1005100090958095709561957F4F8F4F9F4F08956F
:100520002F923F924F925F926F927F928F929F9203
:10053000AF92BF92CF92DF92EF92FF920F931F93F1
:10054000CF93DF93CDB7DEB7CA1BDB0B0FB6F894A2
:10055000DEBF0FBECDBF09942A88398848885F84E2
:100560006E847D848C849B84AA84B984C884DF8053
:10057000EE80FD800C811B81AA81B981CE0FD11D37
:100580000FB6F894DEBF0FBECDBFED010895A1E216
:100590001A2EAA1BBB1BFD010DC0AA1FBB1FEE1FFD
:1005A000FF1FA217B307E407F50720F0A21BB30B48
:1005B000E40BF50B661F771F881F991F1A9469F7C4
:1005C00060957095809590959B01AC01BD01CF0120
:0605D0000895F894FFCF2E
:0405D6000100000020
:00000001FF
