:1000000010C02AC029C028C027C0F1C025C024C004
:1000100023C022C021C020C01FC01EC01DC01CC0E4
:100020001BC011241FBECFE5D1E0DEBFCDBF10E065
:10003000A0E6B0E0E6EEF6E002C005900D92A43630
:10004000B107D9F710E0A4E6B0E001C01D92AE37C9
:10005000B107E1F7C1D145C3D3CF81E080936700F9
:100060002FEF30E049E150E080E197E2FA0131976B
:10007000F1F70197D9F7D99A0090670000FE08952B
:100080002150304089F7109278001092770008953F
:100090008FED8BBB8FEF8ABBD89AD99ADA9A1FBCA7
:1000A0001EBC8EB581608EBD8EB580648EBD8EB552
:1000B00080688EBD659A10926E0010926D0010924D
:1000C00075001092740010926600109265001092F4
:1000D00067007894089590916B00969590937200C4
:1000E0001092730080917600882349F49093690000
:1000F00010926A001092700010926F000AC0813056
:1001000069F410926A001092690090936F00109247
:10011000700010927A00109279000EC0823061F463
:1001200010926A00109269001092700010926F0095
:100130009093790010927A00E0916900F0916A0042
:1001400060916F00709170004091790050917A0039
:1001500020E015C0822F90E08E179F0710F4D898EA
:1001600001C0D89A8617970710F4D99801C0D99A78
:100170008417950710F4DA9801C0DA9A2F5F243BB0
:1001800048F320936800089528E061E070E045E0BE
:1001900050E08BB3877E8BBBDD9ACB010197F1F7E3
:1001A0008BB388618BBBDD98CA010197F1F72150B1
:1001B00081F7109271000895F894E6DF809176003F
:1001C000882319F48EE390E009C0813019F48DE79B
:1001D00090E004C0823021F48BEB90E00197F1F7BE
:1001E000D3DF8EE390E00197F1F7789408951F92A2
:1001F0000F920FB60F921124EF92FF920F931F935D
:100200002F933F934F935F936F937F938F939F931E
:10021000AF93BF93EF93FF9324B535B530936E0042
:1002200020936D008091740090917500B901681B56
:10023000790B70936600609365003093750020938E
:10024000740080E090E038D17B018C0120E030E840
:100250004BE354E42DD188233CF48091640088233F
:1002600011F5109276001FC0C801B70121E030E0FF
:100270004AE754E41DD1882334F480916400882334
:1002800091F481E00EC0C801B70120E030E44CE9F0
:1002900054E40ED188237CF480916400882319F4FF
:1002A00082E08093760081E080936C008AE0809306
:1002B0007B0010926700FF91EF91BF91AF919F91EA
:1002C0008F917F916F915F914F913F912F911F91EE
:1002D0000F91FF90EF900F900FBE0F901F90189509
:1002E0001F9310917600D5D063E070E046D18093E3
:1002F0007600181741F4812F90E0019663E070E0DA
:100300003CD18093760081E0809364001F91089532
:1003100010926700BED0AA2797FDA095BA2FBC0106
:10032000CD0120E533EC40E050E03AD180E593EC9C
:10033000861B970B90937D0080937C0003C0000088
:100340006150704061157105D1F7109278001092DC
:10035000770032DF80917C0090917D0002C0000028
:1003600001970097E1F710927D0010927C001092A7
:100370006B0006C0B0DE80916B008F5F80936B00D6
:1003800080916B00843BB0F384EB04C0A4DE8091C9
:100390006B00815080936B0080916B008823B1F7D4
:1003A00081E08093670028EE33E04AEF50E0CA0115
:1003B0000197F1F70090670000FE0895215030404A
:1003C000B1F7109278001092770080916C0088232A
:1003D00011F01092640008955BDE8AE007C0873058
:1003E00009F47EDF95DF80917B00815080937B0054
:1003F00080917B00882399F730DEDEDEF9CFA0E024
:10040000B0E0E4E0F2E03EC1EC01A880B980CA802F
:10041000DB80A114B104C104D10441F484E2A82E0C
:1004200089EDB82E8BE5C82E87E0D82EC601B50120
:100430002DE133EF41E050E0B3D027EA31E440E072
:1004400050E0FFD07B018C01C601B5012DE133EFF7
:1004500041E050E0A5D0CA01B9012CEE34EF4FEFD6
:100460005FEFEFD06E0D7F1D801F911F97FF04C0BF
:100470006150704080409048688379838A839B8371
:100480009B013F77C901CDB7DEB7EAE017C1B7DFFF
:10049000089580E690E0B3DF0895A0E0B0E0809397
:1004A000600090936100A0936200B0936300089590
:1004B00040D008F481E00895E89409C097FB3EF429
:1004C00090958095709561957F4F8F4F9F4F9923A1
:1004D000A9F0F92F96E9BB279395F695879577951F
:1004E0006795B795F111F8CFFAF4BB0F11F460FFDF
:1004F0001BC06F5F7F4F8F4F9F4F16C0882311F037
:1005000096E911C0772321F09EE8872F762F05C04A
:10051000662371F096E8862F70E060E02AF09A95E5
:10052000660F771F881FDAF7880F9695879597F9DA
:100530000895990F0008550FAA0BE0E8FEEF161674
:100540001706E807F907C0F012161306E407F507C7
:1005500098F0621B730B840B950B39F40A2661F03B
:10056000232B242B252B21F408950A2609F4A140DE
:10057000A6958FEF811D811D089597FB092E0726F3
:100580000AD077FD04D027D006D000201AF4709549
:1005900061957F4F0895F6F7909581959F4F089547
:1005A00097FB092E05260ED057FD04D028D00AD07F
:1005B000001C38F450954095309521953F4F4F4F92
:1005C0005F4F0895F6F790958095709561957F4FF0
:1005D0008F4F9F4F0895AA1BBB1B51E107C0AA1F55
:1005E000BB1FA617B70710F0A61BB70B881F991FD4
:1005F0005A95A9F780959095BC01CD010895A1E287
:100600001A2EAA1BBB1BFD010DC0AA1FBB1FEE1F8C
:10061000FF1FA217B307E407F50720F0A21BB30BD7
:10062000E40BF50B661F771F881F991F1A9469F753
:1006300060957095809590959B01AC01BD01CF01AF
:100640000895FF27EE27BB27AA2760FF04C0A20F4B
:10065000B31FE41FF51F220F331F441F551F96952C
:1006600087957795679589F70097760771F7CF019A
:10067000BD0108952F923F924F925F926F927F92A9
:100680008F929F92AF92BF92CF92DF92EF92FF92A2
:100690000F931F93CF93DF93CDB7DEB7CA1BDB0B4E
:1006A0000FB6F894DEBF0FBECDBF09942A883988F3
:1006B00048885F846E847D848C849B84AA84B984FA
:1006C000C884DF80EE80FD800C811B81AA81B98106
:1006D000CE0FD11D0FB6F894DEBF0FBECDBFED011A
:0606E0000895F894FFCF1D
:0406E600010000000F
:00000001FF
